:10000000001000203D06000037800000378000000F
:100010003780000037800000378000003780000004
:1000200037800000378000003780000037800000F4
:100030003780000004960000174C00003780000055
:100040003780000037800000FD0E00003780000080
:1000500037800000378000003780000037800000C4
:1000600037800000378000003780000037800000B4
:1000700037800000378000003780000037800000A4
:100080003780000037800000378000003780000094
:100090003780000037800000378000003780000084
:1000A0003780000037800000378000003780000074
:1000B000378000003780000037800000B5680000FE
:1000C0003780000037800000378000003780000054
:1000D000378000003780000037800000F105000005
:1000E0008D7F0000378000003780000037800000DF
:1000F0003780000037800000378000003780000024
:100100003780000037800000378000003780000013
:100110003780000037800000378000003780000003
:1001200037800000378000003780000037800000F3
:1001300037800000378000003780000037800000E3
:1001400037800000378000003780000037800000D3
:10015000000000000000000000000000000000009F
:1001600001F0FF01102A2BDB10F0070F08D010F868
:10017000013B013A8B422DD010F0070F42B3F6D16C
:10018000F0B441EA012141EA014122F007047FF085
:1001900000070023F0E80256083C85EA010586EADC
:1001A000010685FA47F5A3FA87F586FA47F6A5FA18
:1001B00087F68EB9EED1F0BC01F0FF0102F0070224
:1001C00032B110F8013B013A83EA010313B1F8D1CF
:1001D0000020704701387047002D06BF35460338B0
:1001E000073815F0010F07D1013015F4807F02BFE9
:1001F000013015F4C03F0130F0BC0138704700BF3A
:1002000010B5054C237833B9044B13B10448AFF350
:1002100000800123237010BD701700200000000033
:1002200074A4000008B5034B1BB103490348AFF3A6
:10023000008008BD000000007417002074A40000B6
:10024000A3F5803A704700BF174B002B08BF134B34
:100250009D46FFF7F5FF00218B460F461348144AD1
:10026000121A08F027FF0E4B002B00D098470D4BB9
:10027000002B00D098470020002104000D000D48FD
:10028000002802D00C48AFF3008006F0CDFC20001F
:10029000290007F057FE06F0B3FC00BF000008007D
:1002A00000000000000000000010002030110020BD
:1002B00014470020000000000000000070B5044654
:1002C0000A480B4E06F04AFE0025E3686268D21A1F
:1002D000AA4200DC70BDA2682B44304652F823309D
:1002E00093F9001006F0B4FD0135EEE79493000099
:1002F000AA930000F0B5C3684268D21A012A87B0F9
:1003000005DC1E4807B0BDE8F04006F027BE866851
:100310009F0056F823301B78012B01D91848F1E7CC
:100320006C4693B9174D0FCD0FC495E8030084E8D0
:1003300003003E4414497468204608F0C3FE30B9F7
:10034000684607F0FEFE07B0F0BD104DEBE7104920
:10035000204608F0B7FE18B9684607F0F5FEF2E748
:100360000C49204608F0AEFE18B9684607F0EFFECB
:10037000E9E7094806F0F2FDE5E700BFAF930000AA
:10038000C7930000B4950000EF930000CC950000E7
:10039000F2930000AF940000F693000008B5084BFC
:1003A0001968084B186808F06EFB18B90648B121A7
:1003B00007F048FEBDE80840044806F0CFBD00BF86
:1003C0003C1000204C1000202B94000034940000BE
:1003D00030B5124C124B2268124D1A608BB0124B82
:1003E0002B60124B009305F0D9FA2B680293104B47
:1003F0000393104B0493104B05934FF4C8621923D9
:10040000CDE9062300213223CDE908130190694686
:10041000206804F059FD0BB030BD00BF4C10002027
:10042000B0220020AC220020401000205795000090
:1004300058180020901700203011002038B501F026
:10044000EDFD1248124C012100F06AFE0122114616
:10045000002001F04FFD022501221146C4F8805012
:10046000002001F047FD01221146C4F8845000200D
:1004700001F040FD0122C4F88C501146002001F02B
:1004800039FDC4F88850002038BD00BF30053E005B
:1004900000400E4008B54FF0804301225A6403F536
:1004A00064231E49D3F8B02042F00102C3F8B02003
:1004B000D3F8E02042F00802C3F8E0204A6B42F48F
:1004C00080524A63D3F8E02022F00802C3F8E0200B
:1004D000D3F8B02022F00102C3F8B020104AD2F8BD
:1004E000A43143F4F843C2F8A43105F003FA00F054
:1004F0009FF805F0A3F905F0E9F905F0B5F9FFF764
:100500009DFF08F0B4FC00F087F800F041F907F017
:1005100097FEBDE8084002F0EBBD00BF004005407B
:1005200000300E4030B5214D0FCD97B00FAC0FC449
:1005300095E807001E4B84E807001E4A1E49CDE9D6
:1005400003231E4B059303F1042306930423CDE9F3
:100550000713102200210BA808F0ACFD184B4FF434
:100560008010CDE9090327238DF82C3028238DF83E
:100570002D30144B0C9320230D9301238DF839302B
:10058000114B0093114803AB0FAA09A905F0F6FD22
:10059000044618B10E48882107F054FD00214FF49D
:1005A000E13007F039FD204617B030BD98950000C6
:1005B00000B2040000100140000404040704070511
:1005C0001C100140E4220020181B0020C01B00204A
:1005D0006995000008B5FFF7A5FF28B1BDE8084000
:1005E0000248B82107F02EBD08BD00BF6995000084
:1005F000014805F07BBE00BFC01B002008B50448C1
:1006000007F09CFDBDE80840024807F097BD00BF19
:10061000B4950000CC95000008B50448012100F015
:100620007FFDBDE8084007F096BC00BF00550A00FA
:100630000148012100F074BD00550A0008B500F022
:1006400093F8124B12498B4212D3124B12490020DD
:100650008B4218D3FFF7F8FD186850F8224058680D
:1006600040F82240013298688242F5D30C33EAE721
:100670000022F8E71C6844F8220001325C68A242BC
:10068000F8D30833E4E70022F8E700BF7CA40000B9
:1006900088A4000088A4000088A4000000487047D7
:1006A00000A24A04174AD2F8943003F00703023B31
:1006B000042B1FD8DFE803F00620031A0800124BB2
:1006C0001B680AE0114BFBE79368C3F30443073B45
:1006D000072B14D80E4A52F823300A4AD2F80001E8
:1006E000C0F304200130B3FBF0F07047094B1B68E6
:1006F0005B08F2E7074BE3E74FF40043EDE7002325
:10070000EBE700BF00400E405C10002054100020BA
:10071000E49500005810002008B5FFF7C3FF054B13
:10072000D3F80831C3F308230133B0FBF3F0024BD5
:10073000186008BD00400E4050100020014B1868A2
:10074000704700BF54100020054B1860054BD3F8CC
:10075000943003F00703022B01D1FFF7DDBF704790
:100760005410002000400E40044B054A9A60D3F814
:10077000882042F47002C3F88820704700ED00E042
:1007800000000000014B1868704700BF5C1000209B
:100790000E4B9B6A03F1F02202F5F012B2F5E04F26
:1007A00010B50ED219680A4A91420AD1094C227832
:1007B00012F0FD0F08D1DB69984708B901232370B7
:1007C00010BD4FF48170FBE70020F9E70010E10F46
:1007D00007B0CD5E042300204FF000530B4A1A608F
:1007E0000B4A01239360136823F4E06343F48063AE
:1007F0001360BFF34F8F0749074BCA6802F4E062EA
:100800001343CB60BFF34F8F00BFFDE702020FF031
:1008100000500E4000ED00E00400FA0538B5044633
:100820000D4601B118B90448372107F00BFC2368C5
:100830002B60256038BD00BF5496000070B5D0B164
:10084000C9B10E4E431E013913F8014FA25D02F0EB
:100850000302012A11F8012FB55C05F003052046BB
:1008600008BF04F12000012D08BF2032801A01D1F9
:10087000002CE9D170BD0120FCE700BFDAA2000026
:1008800005490A681318054883428CBF4FF0FF32B0
:100890000B601046704700BF601000200000082069
:1008A00008B52948012100F03BFC01230422022164
:1008B000052002F039F8002002F020F8234B012235
:1008C000C3F810281146042001F014FB204801F061
:1008D00033F9204BD3F8F02042F00102C3F8F020A6
:1008E000D3F8FC2042F08072C3F8FC20A3F55D43EE
:1008F000194A1A6000F5D520184B00F2FC40B0FBF5
:10090000F3F0174B013802221861C3F8F0204FF4BE
:100910008072C3F804234FF06043124AC3F8B02F2B
:10092000114AC3F8802ED3F8002E42F48072C3F827
:10093000002EFF2283F82020D3F8002E22F48072AC
:10094000C3F8002E002008BD00550A0000801043A7
:1009500006000E0000ED00E0FF030040F8590D0016
:10096000000004E055CEACC5090001004FF0604323
:1009700030B5D3F8802ED20715D501240B4D844015
:10098000D5F8FC2042F08072C5F8FC20D3F8002E88
:100990002243C3F8002E53F82020002AF0D003F899
:1009A0002010002030BD1120FCE700BF00ED00E06A
:1009B000082838B504460D4604D84FF6FF73CB40DF
:1009C000DB0704D4084840F2FE3107F03BFB30233C
:1009D0000C2013FB040000F18840012100F50820E1
:1009E00001FA05F5056038BDA2960000082838B563
:1009F00004460D4604D84FF6FF73CB40DB0704D402
:100A0000084840F22D4107F01DFB30230C2013FB5A
:100A1000040000F18C40012100F5082001FA05F5E1
:100A2000056038BDA296000010B5012104460948B2
:100A300000F076FB0848012100F072FBA3782078D3
:100A40006178B3FA83F35B09042201F06DFF0020A3
:100A500010BD00BF4041050000550A0038B50478BC
:100A60004578082C04D84FF6FF73EB40DB0704D41D
:100A700007484FF4896107F0E5FA3023634303F137
:100A80008043012203F50823AA409A6138BD00BFC4
:100A9000A296000070B506784478082E054604D862
:100AA0004FF6FF72E240D30704D40C484FF4836141
:100AB00007F0C8FA30230C2213FB062303F1067358
:100AC00003F5004304EBC304A400AB782068C0B274
:100AD00013B9B0FA80F0400970BD00BFA2960000C3
:100AE0002DE9F04F9A46554B85B01B78DDF83C90C8
:100AF0009DF844B0DDF8508006460F461546002BA1
:100B000000F08B80172A00F28A800E9B002B00F0E9
:100B10008680B9F1000F00F08280129BB3F5006F60
:100B20007DDC012802D1109B002B78D0444B03EBD5
:100B300005131B7B002B74D0424C10220021684609
:100B400008F0B8FA04EB45141022002F57D13946AB
:100B5000204608F0AFFA43F210036380BBF1000FA8
:100B600003D1E37843F00303E370364A0E9BCDF8DC
:100B700000A002EB451CCCE90193129B013BC3F39F
:100B80000A009DF84C30690103F003039B0643EA19
:100B9000001E53582C4818404EEA0003012E5350B3
:100BA00041D11323CCF80C309CE80F000CF1100E4F
:100BB0008EE80F00DCF81C20109BCCF814306FF08E
:100BC000030161F39F02012FCCF81C2003D1CCF864
:100BD0001890CCF804301A4A290102EB051342F8A8
:100BE00001800027159A5A6028469F605E7322464E
:100BF000694601F04FFF384605B0BDE8F08F00218F
:100C0000204608F057FA4FF444736380BBF1000F9D
:100C1000ABD1E37843F03003A6E70C48ECE70C488F
:100C2000EAE70C48E8E7B8F1000FD4D19CF80230AD
:100C300068F304138CF80230CDE700BF05230020D1
:100C4000E01B0020601D00200F80FFF3028000F0F9
:100C5000018000F0078000F038B5124B1B78054684
:100C6000DBB1E0B107F0C0FA0F4A00231146147B54
:100C700054B92B601A0101EB031301258C501D732D
:100C800007F0B8FA204638BD0133182B02F11002E4
:100C9000EDD107F0AFFA0548F5E70548F3E7054859
:100CA000F1E700BF05230020E01B0020048000F0D6
:100CB000028000F0018000F013B507F095FA0C4AAD
:100CC0000023147B7CB90133182B02F11002F8D1F8
:100CD000019001F06FFE074B01981C7007F08AFA33
:100CE000204602B010BD07F085FA0348F9E700BFBF
:100CF000E01B002005230020058000F00D4B1B7831
:100D000010B5044693B1172812D807F06DFA0A4BB4
:100D100003EB04131A7B2AB100241C7307F06AFA50
:100D2000204610BD07F066FA0448FAE70448F8E7E1
:100D30000448F6E705230020E01B0020068000F0B1
:100D4000028000F0018000F013B5134B1868019089
:100D500000238DF8043007F047FA104B1C7824B1BB
:100D600007F048FA0E4802B010BD01221A7007F0D1
:100D700041FA0C4A234621460133182B117302F124
:100D80001002F9D104230DEB03008DF8073001F0B8
:100D900041FE0020E7E700BFEE960000052300209B
:100DA000038000F0E01B00200A4A127808B55AB10F
:100DB00017280BD8084A02EB00131B7B43B1002114
:100DC00001F00CFE002008BD0448FCE70448FAE7E7
:100DD0000448F8E705230020E01B0020028000F013
:100DE000018000F0078000F00A4A127808B55AB175
:100DF00017280BD8084A02EB00131B7B43B10121D3
:100E000001F0ECFD002008BD0448FCE70448FAE7C7
:100E10000448F8E705230020E01B0020028000F0D2
:100E2000018000F0078000F00A4A127808B552B13C
:100E300017280AD8084A02EB00131B7B3BB101F0CC
:100E4000AFFE002008BD0548FCE70548FAE7054865
:100E5000F8E700BF05230020E01B0020028000F01F
:100E6000018000F0078000F00D4B1B7893B117282C
:100E700012D889B10B4B03EB00131B7B73B10A4BE8
:100E80001A6E012303FA00F010401ABF00200B7005
:100E90000870704705487047054870470548704717
:100EA00005230020E01B002000200040028000F00D
:100EB000018000F0078000F00B4A127810B50C4654
:100EC00062B117280CD859B1084A02EB00131B7BFA
:100ED00043B101F085FE2070002010BD0448FCE7FE
:100EE0000448FAE70448F8E705230020E01B002047
:100EF000028000F0018000F0078000F02DE9F84347
:100F0000DFF86480D8F86070D8F86C301F4000D5E6
:100F1000FEE7144CDFF8549001260025374217D025
:100F20002368C8F868609BB1A16862680131A1605C
:100F300028469847637B012B0AD148B909EB451332
:100F40001A7B60F341021A731A7F60F341021A7729
:100F50000135182D4FEA460604F11004DED1BDE834
:100F6000F88300BFE01B002000200040601D00202F
:100F70000C4B984210D90C4B984210D902220123F5
:100F80000A490B640A49D1F8003123F0407343EA5F
:100F90000263C1F80031704700221346F0E70122D6
:100FA000FBE700BF0048E8010090D0030000C84301
:100FB00000400E4038B54FF0804300225B68104B74
:100FC000C9B21C461D798D4202D11D68854213D2DB
:100FD0000132072A03F10803F4D10A4841F2DD7116
:100FE00007F030F803224FF080414B6823F0407344
:100FF00043EA02634B6038BD04EBC2025279F2E768
:1010000014980000F29600001F2810B5044604D979
:1010100003484FF4B67107F015F80120A04010BD49
:101020003D970000044BDB6B5B0604D4034AD2F807
:10103000C830002BFBD1704700300E400000C64383
:1010400008B5FFF7EFFF024B5868C0F3014008BD39
:1010500000300E40044BD3F84421D20703D4D3F818
:1010600040211042FBD1704700400E40B0F5004FC8
:1010700038B5054604D30C4840F64A6106F0E2FF55
:101080006C1C14BFB4FA84F42024C4F11F0420465D
:10109000FFF7BAFF0138A84204D0034840F6516177
:1010A00006F0D0FF204638BD8C9700004FF08043FB
:1010B00041F6713270B51E6C1A6405460C46FFF796
:1010C00079FF134A134B022C08BF13469D42124A64
:1010D000B6B209D94FF08C43C3F800210F4A9542AC
:1010E00007D84FF0884306E04FF08843C3F800214B
:1010F000F7E7002CF5D14FF480521A6041F67133B6
:101100009E421EBF4FF0804300221A6470BD00BF94
:101110000024F40080D543020202020080F0FA02AB
:10112000C0F30322013A38B503460E2A3AD8DFE865
:1011300002F040433939081B1E212536292E391863
:1011400033001F4C0020C3F3043508B1FFF782FFC2
:1011500004F1424404F5801405EBC404A4002160AA
:1011600038BD184C0020EEE7174C0120EBE7174C78
:101170001020E8E7164C4FF48070E4E7154C4FF46C
:101180008030E0E7144C81F001010020DBE7134CD4
:1011900081F001010020D6E7114C0020D3E7114C6B
:1011A0000020D0E7BDE838400F4841F6795106F0FD
:1011B00049BF0E4C0020C6E70D4C0020C3E700BF1E
:1011C000B0400E40C4400E40E0400E40E8400E40AB
:1011D000EC400E40F0400E4060410E4064410E4035
:1011E000F0410E4050410E40F296000000400E408B
:1011F000C0400E4008B5C0F30313013B0B2B00F2B7
:10120000AB80DFE803F0060C101A2024282C668639
:1012100092A5534BD3F80001C0F3042008BD504BF6
:10122000D3F81401F8E74E4BD3F80001C0F3016086
:101230000130FFF7E9FE0138F0E7494BD3F80C0124
:10124000C0F30820EAE7464BD3F81801F8E7444B0F
:10125000D3F81C01F4E7424BD3F80801F0E7414B07
:1012600098422AD00ED8A3F5BA2398422BD003F582
:101270007033984215D041F61D713B4806F0E2FEEE
:101280000020CBE7394B984205D0394B98420ED01D
:10129000384B9842EFD1324BD3F82001C0F30230E3
:1012A000C7E72F4BD3F8200100F00F00C1E72C4B0C
:1012B000D3F82001C0F30120BBE7294BD3F820016C
:1012C000C0F30310B5E7264BD3F82001C0F3034069
:1012D000AFE7294B98420CD003F5A11398420ED0EA
:1012E000264B984212D11E4BD3F8280100F0030080
:1012F0009FE71B4BD3F82801C0F3011099E7184B67
:10130000D3F82801C0F30130043092E741F641716F
:10131000B3E71B4B984205D1114BD3F8300100F0D5
:1013200003007BE741F65071A7E7164B984205D0C2
:10133000154B984206D041F668719EE7084BD3F8EA
:101340005C01ECE7064BD3F85C01C0F3014065E7B4
:10135000034BD3F8040173E741F675718DE700BFC5
:1013600000400E4080161800F296000000362C0057
:1013700080262E0080002A0090171C0090071A007B
:10138000A0091400B8003200B9003400C0F3031300
:10139000013B10B50C460B2B00F21882DFE813F06E
:1013A0000C00340045006000740088009C00BC0004
:1013B0006101CE01DA0102021F2904D9C44841F6B5
:1013C0009E7106F03FFE06F0F1FEC248FFF7D0FD29
:1013D00000F00AFAC04BD3F8001121F4F85141EAA9
:1013E0000424C3F80041FFF797F90446FFF728FEED
:1013F00001462046FFF75AFEFFF754F9FFF7B8FD04
:10140000BDE8104000F006BA1F2904D9B04841F6E3
:10141000B47106F017FEB04BD3F8141121F4F85153
:1014200041EA0424C3F8144110BD4B1EB3F5004F2C
:101430000DD2B4FA84F1A84BD3F80041C1F11F01D9
:1014400024F0407444EA0164C3F80041ECE7A34887
:1014500040F65A5106F0F6FD002CEAD12021EAE7C9
:10146000B1F5007F04D39A4841F6C17106F0EAFD58
:10147000994BD3F80C1121F4FF3121F4807141EA2A
:101480000421C3F80C11CFE7B1F5007F04D39048D5
:1014900041F6C87106F0D6FD8F4BD3F8181121F430
:1014A000FF3121F4807141EA0421C3F81811BBE730
:1014B000B1F5007F04D3864841F6D07106F0C2FD35
:1014C000854BD3F81C1121F4FF3121F4807141EADE
:1014D0000421C3F81C11A7E7B1F5007F04D37C48B1
:1014E00041F6D77106F0AEFD06F060FE7A4BD3F8F8
:1014F000081121F4FF3121F4807141EA0421C3F87D
:101500000811FFF709F90446FFF79AFD0146204646
:10151000BDE81040FFF7CABD714B984274D010D897
:10152000704B984246D0704B984257D0A3F5703319
:10153000984226D042F25301BDE81040644806F0BC
:1015400081BD6A4B984205D0694B984273D0694B74
:101550009842EFD1B4F5004F04D95D4842F24501FD
:1015600006F070FD2046FFF781FD01460420FFF7DD
:1015700071FD594AD2F8203123F4E04343EA0133A4
:1015800015E0B1F5004F04D9514841F6E97106F074
:1015900059FD2046FFF76AFD01460420FFF75AFD7A
:1015A0004D4AD2F8203123F4702343EA0143C2F8B4
:1015B000203139E7022904D941F6FA71444806F08E
:1015C00041FD4FF48020FFF745FD434BD3F8301128
:1015D00021F003010C43C3F8304125E7B1F5004F7A
:1015E00004D93B4842F2170106F02CFD2046FFF7D4
:1015F0003DFD01460420FFF72DFD374AD2F820318A
:1016000023F00F030B43D2E7B1F5004F04D9304864
:1016100042F2260106F016FD2046FFF727FD01469F
:101620000420FFF717FD2C4AD2F8203123F0F003F5
:1016300043EA0113BBE7082904D9254842F23501E2
:1016400006F000FD2046FFF711FD01460420FFF7DC
:1016500001FD214AD2F8203123F4407343EA0123EB
:10166000A5E7254B98421DD003F5A113984247D01A
:10167000224B98425FD1082904D9154842F25C01F7
:1016800006F0E0FC2046FFF7F1FC01464020FFF7A2
:10169000E1FC114AD2F8283123F003030B43C2F8CE
:1016A0002831C1E6082904D9094842F26B0106F045
:1016B000C9FC2046FFF7DAFC01464020FFF7CAFCD0
:1016C000054AD2F8283123F0300343EA0113E6E754
:1016D000F29600000148E80100400E408C9700009F
:1016E00080161800A00914008006160000362C0091
:1016F00080262E0080002A0090171C0090071A00F8
:10170000A1F10F03702B04D9324842F27A0106F09E
:1017100099FC2046FFF7AAFC01464020FFF79AFCFF
:101720002D4AD2F82801043920F4405040EA013013
:10173000C2F8280178E642F28901FDE6274B98427B
:1017400005D102297FF63DAF42F2930136E742F21E
:10175000A301F1E6224B984205D0224B984212D0C9
:1017600042F2BC01E8E6032904D91A4842F2AE016C
:1017700006F068FC184BD3F85C1121F003010C4310
:10178000C3F85C4150E6032904D9124842F2B6017D
:1017900006F058FC104BD3F85C1121F4403141EABB
:1017A0000444EDE7B1F5007F04D30A4842F2C401D6
:1017B00006F048FC084BD3F8041121F4FF3121F462
:1017C000807141EA0421C3F804112DE642F2CB01F5
:1017D000B2E600BFF296000000400E40A0091400DF
:1017E000B8003200B900340008B507480321FFF7FC
:1017F000CDFD06480321FFF7C9FDBDE808400448B8
:101800000321FFF7C3BD00BF404105005041070061
:101810006041090037B5FEF745FF0446FFF710FCAD
:10182000022817D1194B1A481A491C449C42B4FB90
:10183000F1F188BF01F1FF310191FFF7A7FD019997
:101840001548FFF7A3FD0199144803B0BDE83040E7
:10185000FFF79CBD124B134D0D48E2189A42B2FBA4
:10186000F5F588BF05F1FF352946FFF78FFD0B48D9
:101870002946FFF78BFD0C4B0C4907481C449C4242
:10188000B4FBF1F188BF01F1FF31DEE7FF2C31013C
:1018900040410500002D3101504107006041090021
:1018A0007FF0FA0280F0FA02FFA14A0400A24A0483
:1018B00000F00F00013808B50B2879D8DFE800F0F8
:1018C00006111B2F25397843515F6B6F414BD3F8BD
:1018D000943003F00703023B052B76D83E4AD05CD8
:1018E00030E03C4BD3F8803003F00703013B032B7F
:1018F0006DD83A4AF3E7374BD3F8843003F0070347
:10190000013B032B63D8364AE9E7324BD3F88830E2
:1019100003F00703013B032B59D8324ADFE72D4B75
:10192000D3F88C3003F00703013B032B4FD82E4A2A
:10193000D5E7284B1B6F13F0030340D0012B14BFD6
:101940000120092008BD234BD3F85C3103F030039C
:10195000202B36D0302B36D0102B14BF012007207F
:10196000F0E71C4BD3F85C3103F44013B3F5001FD0
:1019700027D0B3F5401F26D0B3F5801FEDE7154BF8
:10198000D3F8600100F00300431E022B1DD800EBCA
:1019900040000130D6E70F4BD3F86401F2E70D4B5E
:1019A000D3F8F03103F00703052B10D80F4A96E760
:1019B0000F4842F2CA2106F045FB0020C2E707208B
:1019C000C0E70420BEE70820BCE70520BAE70120F5
:1019D000B8E700BF00400E40DA970000E097000033
:1019E000E4970000E0970000E0970000E89700000F
:1019F000F296000038B5314B984205460BD01ED800
:101A00002F4B984207D02F4B9D4204D02E4841F6D1
:101A1000DC0106F017FB2846FFF74AFF274B9D42E3
:101A2000044625D00DD8264B9D4211D0254B9D4212
:101A30001AD0254841F60B1106F004FB0DE0234BAC
:101A4000E2E7224B9D42F4D1214BD3F8884002E0DB
:101A50001F4BD3F8804004F00704042C27D8DFE89C
:101A600004F0240B0F171300194BD3F88440F2E74E
:101A7000174BD3F88C40EEE7BDE8384006F0DCBAEF
:101A8000BDE83840FEF77EBEBDE8384006F0D7BA64
:101A9000FEF708FE0E4B0446D3F80001C0F30160C8
:101AA0000130FFF7B1FAB4FBF0F4204638BD064828
:101AB00041F65D1106F0C6FA0024F6E704002200A4
:101AC00002001E0003002000F29600000500240022
:101AD00000400E40012808B514BF12481248FFF715
:101AE000E7FE0138072816D8DFE800F01A151507B9
:101AF0001515040B0D4B186808BDBDE80840FEF72E
:101B00001DBEFEF7CFFD0A4BD3F80031C3F304230B
:101B100003FB0000F0E7074841F2D66106F092FAB5
:101B20000020E9E7B8003200B9003400641000205A
:101B300000400E40F296000038B500F47813B3F57B
:101B4000E01F054600F0FC804CD8B3F5602F00F094
:101B5000108123D8B3F5C02F00F0A1800DD8B3F5C4
:101B6000003F00F0A880B3F5802F00F08D80002B9F
:101B700000F0078141F6A96109E1B3F5202F00F0DB
:101B80009480B3F5402F00F09C80B3F5002FF1D185
:101B9000FEF788FDB14BD3F81C317AE0B3F5B01FE6
:101BA00000F0AA800DD8B3F5901F00F09280B3F535
:101BB000A01F00F09880B3F5801FDBD1A84B1868F8
:101BC0006CE0B3F5C01F00F0A580B3F5D01FD1D1F4
:101BD000A448FFF70FFFA14B0446D3F8280100F0FB
:101BE000030092E0B3F5401F00F0B48024D8B3F5B1
:101BF000201F00F0BA800FD8B3F5001F00F09E80C0
:101C0000B3F5101F00F0B380B3F5F01FB2D19648C2
:101C1000BDE83840FFF7EEBEB3F5281F00F0848022
:101C2000B3F5381FA6D19048FFF7E4FE8B4BD3F8ED
:101C30002031C3F3012354E0B3F5601F00F0CF80DF
:101C400013D8B3F5501F00F0A780B3F5581F00F06C
:101C5000AC80B3F5481F8DD10020FFF73BFF7F4BD1
:101C6000D3F85C3103F0030315E0B3F5681F00F00F
:101C7000D080B3F5781F7FF47DAFFEF713FD0446E7
:101C8000284606F0A5FA42E0FEF70CFD734BD3F8A8
:101C90000C31C3F308230133B0FBF3F038BDFEF77A
:101CA00001FD6E4BD3F81831F3E7FEF7FBFC6B4BED
:101CB000D3F80431EDE7FEF7F5FC684BD3F80831B3
:101CC000E7E7FEF7EFFC654BD3F81431C3F30423C9
:101CD000E1E76548FFF78EFE604BD3F82031C3F390
:101CE0000343D840DAE76148FFF784FE5B4BD3F843
:101CF000303103F00303F4E75B48FFF77BFE574BFB
:101D00000446D3F8200100F00F00FFF77DF9B4FB83
:101D1000F0F0C3E75448FFF76DFE504B0446D3F88C
:101D20002001C0F30310F0E74F48FFF763FE4B4B71
:101D30000446D3F82001C0F30230E6E7494867E7DC
:101D40004848FFF757FE454B0446D3F82801C0F337
:101D50000110DAE74348FFF74DFE404B0446D3F845
:101D60002801C0F301300430CFE7414850E73F4835
:101D70004EE74048FFF79CFD07283FF41FAF0928B6
:101D800003D1BDE83840FEF78DBC41F29F613A486F
:101D900006F058F9002081E70120FFF79BFE2F4B4A
:101DA000D3F85C31C3F3014375E73448FFF780FD96
:101DB0000438062810D801A353F820F0311E000083
:101DC000411E0000D91D0000BD1B0000D91D0000F0
:101DD000D91D00002D1E00004FF4B851D7E7284848
:101DE000FFF766FD0438062810D801A353F820F049
:101DF000311E0000411E00000D1E0000BD1B000032
:101E00000D1E00000D1E00002D1E000041F232715B
:101E1000BDE71C48FFF74CFD023809281AD8DFE857
:101E200000F01115070F19191919050B164BC6E605
:101E3000BDE83840FEF782BCFEF780FC40002DE78D
:101E4000124BBCE6BDE83840FEF79CBCBDE838400C
:101E500006F0F2B841F2897199E700BF00400E40E8
:101E6000641000200300200002001E000500240072
:101E70000400220006000E00F29600000A7B3600E5
:101E80000B7C38000C7F3A006810002058100020AE
:101E9000014B1880704700BF1E110020014B1880B5
:101EA000704700BF1C110020022838B50C4604D032
:101EB0000D4842F6FC4106F0C5F80C4D6B6AC3F3C1
:101EC0000113012B0DD064B1074842F6175106F0FB
:101ED000B9F8074BD5F8902033EA0202FAD1012075
:101EE00038BD4FF48003F5E7F296000000400E4045
:101EF000FF3F473A05282DE9F04704460F46914633
:101F00001FD83E4B3E4A13F800A03E4B13F800800A
:101F1000F1B93D4B33F810301366012303FA08F88A
:101F2000D2F8903013EA080FFAD1B9F1000F61D05E
:101F30000125334A05FA0AF5D2F890302B42FBD13D
:101F400058E0BDE8F047314842F6C83106F07AB8AB
:101F50002F4B022833F810604ED1536AC3F301139C
:101F6000012B49D12B4BDB6B5B0504D4274842F690
:101F7000D73106F067F8224A536A03F00303032BB4
:101F800005D1536A23F0300343F020035362224DFE
:101F90001B4BA8441E664FEA8808D8F80030002B77
:101FA000FBD0B9F1000F25D05544AD002B68002BB4
:101FB000FCD0022C1ED1EFB1114B5B6A03F003037E
:101FC000032B03D000212046FFF76EFF0F4842F697
:101FD0005A4106F037F8012200210220FFF78AFF5C
:101FE0000A4842F6E44106F02DF8054B1E662B68C0
:101FF000002BFCD0BDE8F0870027C8E7EE97000073
:1020000000400E40F497000006980000F296000091
:10201000FA97000000300E408004F21038B5FEF749
:102020008DFB0021044600F0C1F91448FEF7A0FF23
:10203000012211460220FFF75DFF06F0B7F8FFF717
:10204000D3FB0CB1FEF7EEFF0D4B02225A67FEF7F1
:1020500029FBFEF78DFFFEF75FFB0546FEF7F0FF5D
:1020600001462846FFF722F81CB90121204600F05E
:102070009DF9BDE83840FFF7CDBB00BF0148E8013E
:1020800000400E4038B504461120FFF711FC04282B
:1020900004D11F4842F63C2105F0D4FF0122002163
:1020A0000220FFF727FFE37A022B2AD8194AD25CD5
:1020B000194D6B6A23F0030313436B62FEF73EFB7B
:1020C000164B2288984294BF082000206B6A23F0A8
:1020D00008031843A388686243EAC223EB622B6BB0
:1020E000E2881B0D1B051343628843EAC2232B635E
:1020F000637A227A1B0143EA0233A27A13436B63A9
:1021000038BD034842F6502105F09CFF0022CFE77E
:10211000F2960000D797000000400E4040787D0105
:1021200070B505461120FFF7C3FB022804D10F4804
:1021300042F6FA2105F086FF0D4E0E4BB26B2C785D
:1021400013401C436B7844EAC324AB7844EA03642D
:10215000EB7844EA0324B36BA34205D000210122AB
:102160000846FFF7C7FEB46370BD00BFF2960000DB
:1021700000400E4080E4FFF8034B5868C0F30800AD
:10218000003818BF0120704700ED00E0034BD86B0A
:1021900080F04000C0F38010704700BF00300E4058
:1021A00038B542EA0323B3F5007F05460C463ED01E
:1021B00019D8B3F5807F36D00AD883B3012B21D04C
:1021C0001F4840F63C2105F03DFF002213461FE06A
:1021D00040F201129342F3D11A4BD3F824321A0E73
:1021E000C3F3074314E0B3F5407F24D040F201323B
:1021F000934210D040F201229342E1D1114BD3F827
:10220000283202E00F4BD3F82432C3F30722DBB2AB
:102210002B60226038BD0B4BD3F82832DFE7094B27
:10222000D3F81C32F1E7074BD3F81C32D7E7054B44
:10223000D3F82032E9E7034BD3F82032CFE700BFD1
:102240004C9800000081E00F08B5FFF79FFF20B118
:10225000024AD2F8C830002BFBD108BD0000C643AB
:102260001A4B022810B5D3F830320C4612D003288E
:1022700013D0012814BFDBB2C3F307231B0323F4DD
:102280007042ECB95AB140F6CB11114805F0DAFEB4
:10229000002010BDC3F30743F0E71B0EEEE70D4926
:1022A000CA6E22F470421343CB660120F1E709495C
:1022B000D1F8EC2022F470421343C1F8EC30F4E77B
:1022C000002AF4D040F6D711DFE700BF0081E00F0D
:1022D0004C98000000300E400378134A002B4378DE
:1022E00070B514BF04260026002B8378946914BFB0
:1022F00002250025002B037924F03F0443EA040360
:10230000C47814BF08210021012C08BF43F0010349
:1023100033432B430B4393611368417923F44033D8
:1023200043EA0143136070BD00300E40F8B5044627
:102330000F46FFF72BFF78B3FFF786FF174B5B685D
:10234000C3F301439C4227D0154BD3F80061FEF73D
:10235000A9F9022C05460FD1124BC6F3042606FB41
:1023600000069E4204D9104840F2627105F06AFEF0
:1023700002212846FEF79AFEC4F102021023934080
:10238000064A13610FB1FFF75FFF2CB921462846BB
:10239000BDE8F840FEF78ABEF8BD00BF00300E4031
:1023A00000400E40002D31014C98000013B502464C
:1023B000FFF7ECFEC8B152B90D4B0191D3F80041C3
:1023C000FEF770F9C4F30422019902FB0002094BE5
:1023D0001B7843B1084B9A4205D8022002B0BDE8F1
:1023E0001040FFF7A3BF0020F8E702B010BD00BF08
:1023F00000400E4006230020002D3101174B4AF605
:10240000E85210B5596B5A639A6FD407FCD41B6C11
:1024100013F003031EBF124A0124C2F8B44A8342D8
:1024200016D00E4B9A6FD207FCD41A6C22F003021E
:1024300002431A649A6F12F00102FBD10038084C73
:1024400018BF01200129C4F8B40A08BF5A6303E089
:1024500010B9034BC3F8B40A10BD00BF00300E40E2
:102460000000C6432DE9F04FA0F5E16389B00024D8
:10247000B3F5966FCDE90244CDE90444CDE90644B5
:1024800006468A46934605D940F6C531554805F0BB
:10249000D9FDA3E0B0F5E16F534B8CBF01220022C0
:1024A00049D1D3F81832C3F30721DBB20791049363
:1024B0004FF416754FF4966748E0BBF1000F0ED04D
:1024C000D9F85C2022F4FE4222F00202B6F5E16F58
:1024D00042EA012218BF02200243C9F85C20BAF187
:1024E000000F26D020460021FFF7BAFE044610B99F
:1024F00040F62241CAE701214046FFF7B1FE0446FB
:1025000010B940F62A41C1E7384A536EBD4238BF80
:102510003D4623F4FF73E72D23F0010328BFE72591
:10252000B6F5E16F18BF43F0010343EA4503536674
:1025300054E0012452E0D3F81832190EC3F30743D4
:10254000079104934FF496654FF4E167DFF89C9090
:10255000D9F84C400192C4F30174234605A902A89E
:10256000FFF71EFED9F8EC30019AC3F30128434669
:1025700006A903A8FFF714FE049BF01B079FF91A96
:102580004143B1FBF5F299182CBF012300238F4280
:102590001ED3EBB9069A039FD31B4343B3FBF5F35A
:1025A000FF182CBF01230023BA4211D383B9059B26
:1025B000029AA3EB020C00FB0CF0B0FBF5F55519E9
:1025C0002CBF01200020AB4202D300283FF475AF9E
:1025D000044840F6134105F035FD0024204609B0BB
:1025E000BDE8F08F4C9800000081E00F00300E40F5
:1025F000334A08B5136FD16C11F0010F03F00603D5
:1026000044D0002B42D0132857D9143813288CBF3C
:10261000102308232A49013BCA6C180322F47F4285
:1026200040EA03231343CB64264BCA6C1B88C2F3D6
:1026300003222833013202EB820003EB5303B3FB86
:10264000F0F3C86C013B072B28BF072320F0EE6096
:1026500040EA036343F48013CB641B4BB3F90030AF
:10266000002B12DB03F12800C0F34E030344500893
:1026700000EB4202B3FBF2F20B6D072A28BF0722E0
:1026800023F0700343EA02120A6508BDD16C01F021
:102690000101194304D109280FD90A380928B6E7DE
:1026A000D26CD20702D50BB92728B0E7074840F60D
:1026B000684105F0C7FC0023ACE70423AAE700BF8C
:1026C00000300E40DA220020DC2200204C9800006E
:1026D0000C4BD3F8803910B5044633B9012804D91E
:1026E000094840F6864105F0ADFC084A136F23F017
:1026F000070323431367064BBDE810401888FFF714
:1027000077BF00BF0000C6434C98000000300E4069
:10271000D822002038B50389C82B044604D9514873
:1027200040F66A2105F08EFCA28823899A4204D9DA
:102730004C4840F66B2105F085FCB4F90C30C82BF1
:1027400004DD484840F66C2105F07CFC6378012BE1
:1027500055D1A388C82B04D94FF42761414805F00F
:1027600071FCE28842F210739A4204D93D4840F667
:102770007D2105F067FCE3884A2B48D9B3F5FA7F41
:1027800047D340F6C312934294BF4FF000524FF02C
:1027900040523549B4F90C00CB6C23F0405323F080
:1027A00001030028A8BF43F001031343CB64D1F811
:1027B000EC30A28843F44073C1F8EC302B4B1A8004
:1027C000CB6E43F08073CB66294BD3F8800900B100
:1027D0000420FFF77DFF274B21891980264BB4F990
:1027E0000C20A0881A80FFF703FFA37BA3B1012B65
:1027F00023D01C4840F67C1105F024FC0FE0022B8E
:10280000AFD1A3880A2BACD940F67521A6E70022E8
:10281000BFE74FF08052BCE7134B184A9A6501227C
:1028200060881146FFF71EFE054648B90D4840F680
:10283000B42105F007FC284638BD0B4B104AEDE7E4
:10284000094AD36B43F48063D3636078FFF7D6FD06
:10285000A37AA3F1200253425341054AC2F89437A8
:10286000E9E700BF4C98000000300E40D82200205D
:102870000000C643DA220020DC22002077402057E7
:10288000372110B7082838B504460D4604D84FF64E
:10289000FF73CB40DB0704D4084840F22D4105F01C
:1028A000D1FB30230C2013FB040000F18C400121EC
:1028B00000F5082001FA05F5056038BDA296000074
:1028C000082838B504460D4604D84FF6FF73CB40B0
:1028D000DB0704D4084840F2FE3105F0B3FB302397
:1028E0000C2013FB040000F18840012100F50820B2
:1028F00001FA05F5056038BDA2960000072810B55D
:10290000044603D90648522105F09CFB054AD2F83B
:10291000443423F003032343C2F8443410BD00BF02
:1029200097980000008008400828F8B505460C4636
:1029300016461F4604D84FF6FF73CB40DB0704D47E
:1029400019484FF4B07105F07DFB26B121462846A9
:10295000CFB1FFF797FF05EB4503072C4FEA0313B1
:102960004FF00F0112D8A00006FA00F281400F4884
:10297000184405F04FFCAEB92146284677B1BDE8B2
:10298000F840FFF77FBFFFF79BFFE4E7A4F10800E3
:10299000800006FA00F281400548E9E7BDE8F8400A
:1029A000FFF78EBFF8BD00BF979800000480084075
:1029B00008800840074B0422C3F88020BFF34F8FE4
:1029C000BFF36F8F044B0021D9664FF4EA401962C0
:1029D000FEF7A6BB00E100E000200040172838B554
:1029E00005460C4603DD0848772105F02BFB1F2D1B
:1029F00084F0010403D90548912105F023FB044B21
:102A00002B449B001C6038BDE39800002F99000008
:102A1000A001811010B5044618B91B48912105F09A
:102A200011FB23781B0613F0604F03D01648922148
:102A300005F008FBE378072B03D91348A32105F021
:102A400001FB01214FF4EA40FEF76AFBB4F80130C4
:102A500022785BBA9BB243EA02630C4A13600023FC
:102A60001362D36253634FF00043D3664FF0FF33DA
:102A70009366074A0421C2F88011E3785B01DBB258
:102A800082F80233116010BDE3980000002000407E
:102A900000E100E02DE9F041C3B201261728054608
:102AA0000C46904606FA03F603DD3A48EC2105F0A1
:102AB000C9FA1CB93748ED2105F0C4FA236823F49C
:102AC0007C1323F00F031BB13248F22105F0BAFA50
:102AD000A37A1B0413F47C0F04D02E4840F2091192
:102AE00005F0B0FAE37A1B0513F07E6F04D0294895
:102AF00040F20B1105F0A6FA237B5B0513F0FE5F95
:102B000004D0244840F20D1105F09CFA224F637B5B
:102B1000BE66302000FB05702268C0F88020C0F837
:102B20008830E37AA27A1B0543EA0243227B43EA18
:102B3000425328F00302C0F88430C0F8982005F012
:102B400053FBFB6E3343FB66237A13B17B6B33433A
:102B50007B63637A13B1FB6A3343FB620E4B1A68E3
:102B6000237923B1DB431B0263F47F431A4063796B
:102B70000BB142EA0322A3790BB122EA0302E37903
:102B80001A43054B1A60054A9662DE63BDE8F041C0
:102B900005F030BBE3980000002000400020004416
:102BA00010B5C3B20124172804FA03F404DD094860
:102BB00040F2971105F046FA05F016FB064AD36E6F
:102BC00023EA0403D366054B1C62BDE8104005F000
:102BD00011BB00BFE398000000200040002000442B
:102BE00010B5C3B20124172804FA03F404DD0B481E
:102BF00040F2B51105F026FA05F0F6FA084B1A6A0C
:102C0000224209D19B6A34EA03030CBF0124002449
:102C100005F0F0FA204610BD0024F9E7E398000023
:102C200000200040022838B504460D4603D911485B
:102C30004C2105F007FA6B791F2B03D90D484F2162
:102C400005F000FAAB786A789B0143EA82032A78A0
:102C50001343EA7843EA02132A7943EAC2236A79E2
:102C600043EA0233AA79043443EA42432401024A84
:102C7000135138BD7A99000000200640014B1860BE
:102C8000704700BF0000C442427801790378002AEF
:102C9000827870B514BF04260026002AC27814BFBB
:102CA00010250025002A42794FEA023242EA012229
:102CB00042EA0302837942EA8332C37914BF2024B3
:102CC0000024002B037A42EA034343EA0603427AD4
:102CD00043EA050314BF4FF4004100212343002AB7
:102CE00014BF4FF4003200220B431343014A136018
:102CF00070BD00BF002006402DE9F04180460C4623
:102D00001F46164622B934484FF4A17105F09AF9CE
:102D10003CB9324B98450CBF31483248FEF70CFFA6
:102D20000446402F4BD009D8A7B1202F3DD0BDE895
:102D3000F041294840F2891105F084B9602FF6D19D
:102D4000B6EB940F04D9244840F2831105F07AF9C8
:102D5000042108E0B6EB141F04D91F484FF4BA71E0
:102D600005F070F910214E4371081F4D01EB44141A
:102D7000B4FBF6F6203EB5EBC60F4FEAC60404D20C
:102D800015484FF4D07105F05DF9D8F8003023F004
:102D90006003C8F80030D8F800302C401F43C8F852
:102DA0000070C8F81440BDE8F081B6EBD40F04D928
:102DB000094840F2791105F045F90821D3E70625C5
:102DC000B4FBF5F3B34204D203484FF4BF7105F0EE
:102DD00039F92946C7E700BFC6990000000801403D
:102DE0005041070040410500F8FF7F0038B5164B01
:102DF000984204460D4620D003F5806398421CD0CB
:102E000003F58063984218D003F58063984214D08C
:102E100003F58063984210D003F5806398420CD08C
:102E200003F53053984208D003F58063984204D0EC
:102E300006484FF4337105F005F9EB435B0003F0EE
:102E40000A03E360E56038BD00000140C699000058
:102E500038B5254B254D984204461ED0A8421CD0BB
:102E600003F50063984218D003F58063984214D0AC
:102E700003F58063984210D003F5806398420CD02C
:102E800003F53053984208D003F58063984204D08C
:102E9000174840F2424105F0D5F840F6AA63E360D6
:102EA00041F20502002323606260124AA36063615D
:102EB000E364A2640C4A236694426367A367E367F2
:102EC00003D002F50062944200D123650023AC4296
:102ED000A36506D0084A944203D002F5806294426A
:102EE00000D1E36538BD00BF00000140000401408F
:102EF000C6990000F9FF0100000C014038B5314BC4
:102F0000984204460D4620D003F5806398421CD0B9
:102F100003F58063984218D003F58063984214D07B
:102F200003F58063984210D003F5806398420CD07B
:102F300003F53053984208D003F58063984204D0DB
:102F4000214840F2FD2105F07DF82046FFF780FF83
:102F5000AB7C1BB1236843F080432360EB7C1BB147
:102F60002B7D43F08003A3652A8A6B7B1343EA8998
:102F7000134363602B7BD5E901122046FFF7BCFEAB
:102F80006B7D1BB1236843F480332360AB7D1BB1A1
:102F9000236843F400432360EB7D2A7E1B07120560
:102FA00002F4E00203F0E04313432366636F23F06F
:102FB00030036367626F6B7E134363672B78E36054
:102FC00038BD00BF00000140C69900002DE9F04760
:102FD000374FDDE908840646154699468A4641B9C9
:102FE000082323704FF4D963A360324B6760E3601A
:102FF000FEE75AB1531E134208D00823237040F253
:10300000CB63A3602B4B6760E360FEE705F0ECF851
:10301000002D08BF04254D4538BF4D46D6F808E0C1
:103020006B1E13EA0E0FC5F1000202EA0E0208BF82
:103030000025154409F1FF33AA4413EA0A0FC9F128
:10304000000202EA0A0208BF4FF0000902EB09037E
:1030500072680132A2EB0E01A3EB0E0E714584469D
:1030600015491AD2B8F1000F02D09B1AC8F80030E7
:10307000162540F22273C4E902312570676060466C
:1030800005F0B8F840F2D763A3600A4B257067607B
:10309000E36000252846BDE8F087B3600023237075
:1030A0004FF4E563C4E90231676005F0A3F8F1E786
:1030B000139A00008A9A0000729A000030B50C46FC
:1030C00085B011461D461BB9039205F0BAF8039965
:1030D000064801950023009304220123002C18BF09
:1030E0002046FFF773FF05B030BD00BF6C10002015
:1030F0001FB50C4B1B78012B0AD1FFF73DF80028B8
:1031000014BF6FF005004FF0FF3005B05DF804FB11
:10311000684600F027FA9DF80000003818BF01202B
:103120004042F2E70A470020084B187801280AD1EC
:10313000074B1B78012B07D1064B1B78002B14BFC4
:103140000320022070470020704700BF074700207F
:103150000A4700200B4700201FB5FFF70DF848B9BC
:10316000074B1B78012B02D0684600F08BF94FF01B
:10317000FF3001E06FF0050005B05DF804FB00BF13
:103180000A47002030B585B00546FEF7F5FF18B1B7
:103190000024204605B030BDB5B91C2003F068FD01
:1031A00004460028F4D00123174903766A462046D6
:1031B00000F0E4FB9DF80030EBB1237E012BE7D15A
:1031C000204603F05DFDE3E7AC686CB91C2003F01A
:1031D0004FFD04460028DBD00123237629680A4BE3
:1031E000002908BF1946E1E7EB681B2BD0D914F082
:1031F0000303F2D0CCE72DB16B68DB0702D50123C6
:103200006376C6E70023FBE79F9A00007FB504467C
:103210000E461546FEF7B0FF18B10024204604B054
:1032200070BD002CF9D0C5B9182003F021FD04466B
:103230000028F2D00123144903746B46324620461D
:1032400000F09CFE9DF80030002BE7D0237C012B82
:10325000E3D1204603F014FDDFE7AC686CB9182019
:1032600003F006FD04460028D7D001232374296803
:10327000054B002908BF1946DFE7EB68172BCCD9AF
:1032800014F00303F2D0C8E7A59A00002DE9F04F2F
:103290008FB081468A461646FEF76EFF08B10024BD
:1032A0003FE0B9F1000FFAD0002E3ED1C82003F064
:1032B000DFFC04460028F2D0012680F8C0604FF4FD
:1032C000806003F0D5FC05460028E8D0414F84F823
:1032D000C1604FF480681F260DF1280B00223E4983
:1032E0005B4604F1980000F0D7FA9DF82820002AE8
:1032F00050D10723CDE90623384BCDF820B003EA9F
:103300009803CDE90223CDE904225346CDE90065B7
:103310004A463946204601F00FF99DF82830002B27
:1033200038D120460FB0BDE8F08FB468DCB9C820B2
:1033300003F09EFC04460028B1D0012384F8C0307D
:10334000D6F81480B8F1000F2CD14FF4806003F050
:103350008FFC054670B994F8C030012B9FD12046F0
:1033600003F08EFC9BE7F368C72B98D914F0030396
:10337000E4D094E7012384F8C1304FF480683768C3
:10338000144BB669002F08BF1F46FEB1731C1FD037
:10339000372E17DD94F8C130012BDCD1284603F01D
:1033A0006FFCD8E735694DB9404603F061FC05462E
:1033B0000028D0D0012384F8C130E0E715F00703DE
:1033C000F9D0C8E7C6F13706F6B285E71F2683E7CE
:1033D000402681E7AF9A0000B99A0000FEFFFF3F48
:1033E000034B1B78012B06BF024B18680020704767
:1033F0000A470020A02200202DE9F0411B4B1B783A
:10340000012B00D0FEE71A4B1F7867BB04F0ECFEDF
:10341000184D194E95F80080044600F071FD4028C3
:10342000287012D0154AB8F1400F52F8303033608E
:1034300001D1AFF30080124B32681B689A4208D169
:103440002046BDE8F04104F0D5BE3760AFF3008000
:1034500002E02B78402BF9D001F0D3FB204604F09A
:10346000C9FEBFF36F8FBDE8F08100BF0A4700209F
:103470000B47002009470020A4220020A0200020A4
:10348000A022002070B5044608B904F0DAFE244BEF
:103490001E78012E09D013232370224B636040F263
:1034A000FE33A360204BE360FEE7204B1B884BB943
:1034B000092323701B4B636040F20943A3601A4B3E
:1034C000E360FEE71A4D2B784BB11F232370154B99
:1034D000636040F20C43A360134BE360FEE704F02B
:1034E0008CFE48B11F2323700E4B636040F20F43E4
:1034F000A3600D4BE360FEE700F002FD0D4B0E4AAA
:1035000018700E4B2E7018700D4B53F8303013603E
:103510000C4A136001F036FBBDE8704004F091BE28
:1035200007470020CC9A00004C9B0000E0220020BE
:103530000A47002009470020A42200200847002055
:10354000A0200020A02200200023054A19460133B4
:10355000402BC2E9001102F10802F8D1704700BF08
:10356000A020002070B5044608B904F06AFE564D4C
:103570006A68D2B12B68554E4BB92346296B544823
:103580009200FFF79BFD306023780BB170BD336074
:10359000504B32681A60504A6B6813604F49504A6A
:1035A0009B0013600A6813440B602A89BAB10C2689
:1035B0002346296B4B487243FFF780FD4A4B186046
:1035C0002378002BE2D1494B494A18602B8913809C
:1035D0004249484A734313600A6813440B60464EDD
:1035E0006B6B336001F080FB02F08EFF054648B143
:1035F00001232370414B63604FF4DA73A360404BA7
:10360000E360C3E702F0FEFF36683E4BB04202467D
:10361000186009D209232370384B63604FF4DD73BF
:10362000A360374BE360FEE73CD02B46002001212E
:1036300003F064F97043344BB6F57A7F186008D90B
:10364000324600230020012103F058F94FF47A7527
:1036500045432E4B1D602E4B002119702D4B1970C8
:103660002D4B19602D4B19602D4B19702D4B197076
:10367000194B1A68C2B92C4B00221A7000F038FCA2
:10368000FFF762FF1A4B1B88B3B9204600F042FFD8
:103690002378002B7FF47AAF04F0C9FE234B01227C
:1036A0001A7073E72846C6E70A4B18680028E2D06C
:1036B000920005F0FFFCDEE7204600F02DF92378AC
:1036C000002BE2D062E700BF8010002064200020C1
:1036D000279B0000682000206C2000206020002034
:1036E000702000203A9B00007420002078200020E9
:1036F000DE2200207C20002080200020CC9A0000C8
:10370000549B00008C200020882000208420002072
:103710000A4700200B470020A0220020A4220020FE
:1037200008470020094700200C47002007470020D9
:1037300090F82710094B53F83120C26010B532B908
:10374000026143F8310003EBC103586010BD00244F
:103750000461106143F83100F8E700BFA0200020A9
:1037600090F82720094B53F8321010B5D40031B926
:10377000C0E9031143F832002344586010BD2344CC
:103780000022C2605A680261D060F6E7A0200020E3
:1037900010B5044690F8270000F0C2FB074B94F8E0
:1037A00027201B789A42204603D1BDE81040FFF73E
:1037B000D7BFBDE81040FFF7BBBF00BF08470020E0
:1037C00010B50446D4E9033290F8270082B90D49B8
:1037D00053B941F8303001EBC0014B6000F0B6FB4B
:1037E0000023C4E9033310BD1A6141F83030F7E714
:1037F000D36023B9034B03EBC0004260F0E71A61CA
:10380000EEE700BFA0200020F7B504460D4611B337
:1038100002F0F8FE114B1A680026571E46F1FF31E0
:10382000E5FB00713346384603F068F8CDE90066E1
:1038300001460B4A234604F1440005F0D2FB08B1CF
:1038400004F0FFFC0323204684F8263003B0BDE8D3
:10385000F040FFF7B5BF0223F5E700BF802000204E
:10386000DD85000038B50B4D04462868002380F83C
:10387000241080F825301146FFF7C6FF34B12968BF
:10388000201D0C62BDE8384004F0D6BD2B681C62D8
:1038900038BD00BFA02200202DE9F0470546924622
:1038A0001C460BB904F0CDFCFEF766FCDFF8648023
:1038B000164F064638B1202323705523C4E902373A
:1038C000C4F80480FEE73DB90A2323705823C4E9F5
:1038D0000237C4F80480FEE704F086FC102231466B
:1038E0008146284605F0E6FB094B2B60281DC5F8EC
:1038F0000CA004F09DFD484604F07CFC702326706B
:10390000C4E90237C4F80480BDE8F087B69B000024
:10391000464C41475B9B0000134BF0B51C68134BB2
:103920001E880025721E04F10C0192B22B46AFB224
:10393000BA4211D80C214A43A118A3500C4A4B603B
:103940000B81D3809680146003700A4B43605D2323
:103950008360094BC360F0BD41E9031321F8043CC7
:1039600001350C31E3E700BF78200020DE22002083
:1039700098200020C39B00001D9C00002DE9F84307
:10398000054614460AB904F05CFCFEF7F5FBDFF8C7
:103990006480164F064638B1202323705223C4E9B1
:1039A0000237C4F80480FEE73DB90A23237055238B
:1039B000C4E90237C4F80480FEE704F015FC1822BD
:1039C00031468146284605F075FB2846084B40F8ED
:1039D000043B04F02DFD484604F00CFC6C232670DB
:1039E000C4E90237C4F80480BDE8F883AB9C00004A
:1039F0004D5554582C9C00002DE9F74F0C9C054662
:103A0000894616460CB904F01CFCFEF7B5FB48B11C
:103A100020232370724B636040F23313A360714B19
:103A2000E360FEE74DB90A2323706D4B63604FF4EA
:103A30009B73A3606B4BE360FEE7C6F30E034BB1D1
:103A400008232370664B636040F23913A360654B13
:103A5000E360FEE72A68644B9A4209D00C23237086
:103A60005F4B636040F23D13A3605E4BE360FEE793
:103A700036B2002E0CDB04F0C0FB48B11F232370CC
:103A8000574B63604FF4A073A360564BE360FEE7AF
:103A9000564B93F800B0BBF1010F16D104F0A4FB14
:103AA0002F7DDFF850818246CFB9D8F8003085F8F5
:103AB00014B0DA6A2B61EA60DD6204F09BFB484BCC
:103AC000636027704FF4AA7305E002232370444B10
:103AD000636040F24513A360424BE36013E02B693F
:103AE000D8F8002093421CD1FF2FDFF8F4803D4E20
:103AF0000CD104F07FFB1E232370C4F8048040F235
:103B00005D13C4E9023603B0BDE8F08F01372F75AD
:103B100004F070FB23232370C4F8048040F269137F
:103B2000EFE7002E08DA04F065FB1D2323702C4B11
:103B300063604FF4BB73CEE72D49097841B104F0BF
:103B400059FB2D232370264B63604FF4C173C2E7EA
:103B500092F8271093F827208A4202D9184600F0DD
:103B6000C5FD4A4604212846FFF77CFE504604F076
:103B700041FBFFF741FC04F037FBD8F8003093F825
:103B80002530032B26D8DFE803F002101E17002390
:103B90002370134B63604FF4D073A360114BE36049
:103BA00003B0BDE8F04F04F025BB212323700C4B7C
:103BB00063604FF4D573F0E722232370084B6360F2
:103BC0004FF4DA73E9E731232370054B63604FF458
:103BD000DF73E2E7019004F034FB0198E0E700BFF7
:103BE0002C9C0000949C00004D5554580A4700201E
:103BF0000B470020A0220020044B03600023C0E9F3
:103C000003330375043004F013BC00BF4E4F4E4520
:103C10002DE9F84305460F4614460AB904F011FB96
:103C2000FEF7AAFA064640B120232370474B636093
:103C3000A523A360464BE360FEE745B90A23237042
:103C4000424B6360A823A360414BE360FEE72A6810
:103C5000404B9A4208D00C2323703C4B6360AB234B
:103C6000A3603B4BE360FEE73B4B1B78012B0BD083
:103C700002232370354B6360AF23A360344BE360B2
:103C800007463846BDE8F88304F0AEFA804667B1CF
:103C9000012F2ED004F0AEFA082323702B4B636063
:103CA000F323A3602A4BE360FEE76B68DFF89C9088
:103CB000274E93B9286910B1294604F004FD28461F
:103CC000FFF79AFF404604F095FA00232370C4F8EA
:103CD0000490C323C4E90236D3E704F08BFA2E2301
:103CE0002370C4F80490C623F4E70222002104F0F4
:103CF000EDFB6868B7B201360028F6D12E699EB197
:103D00002946304604F0DFFC96F8281096F8273054
:103D10008B4209D0304604F0E2FC814228BF0146C4
:103D2000C9B2304600F0E2FC2846FFF765FF404686
:103D300004F060FAFFF760FB00232370034B63601D
:103D4000EE23A360024BE3609BE700BF2C9C0000C6
:103D5000A09C00004D5554580A4700202DE9F04F13
:103D6000054685B0894614460AB904F06AFAFEF79A
:103D700003FA594F594E38B12023237040F257238C
:103D8000C4E902366760FEE73DB90A23237040F2BA
:103D90005A23C4E902366760FEE7C9F30E033BB15C
:103DA0000823237040F25D23C4E902366760FEE712
:103DB0002A684B4B9A4207D00C23237040F26123B0
:103DC000C4E902366760FEE7464B1B78012B09D039
:103DD00002232370676040F26523C4E9023605B010
:103DE000BDE8F08FDFF804B104F0FEF9DBF8003035
:103DF0002A699A42824607D004F0FCF91B232370FB
:103E000067604FF41B73E8E72B7D013BDBB22B753A
:103E10003BB104F0EFF923232370676040F27D2368
:103E2000DBE72946104604F04EFCD5F80480B8F1D3
:103E3000000F0CD1C5F8108085F81480504604F0AE
:103E4000D9F984F80080676040F28A23C5E7DBF87F
:103E5000003093F8272093F8281003928A421DD04F
:103E60001846029304F03BFC884228BF0846039A98
:103E7000029B5FFA80F8424510D21846FFF7A0FC7B
:103E8000DBF80030404683F8278000F049F8DBF883
:103E90000000FFF765FC144B83F800806968296116
:103EA00001232B75CB6AEB604FF00008CD624346CF
:103EB00042462846CDF8008004F04BFB504604F003
:103EC00099F919F4004F01D1FFF796FA84F80080B0
:103ED000676040F2AD2380E72C9C0000889C0000C6
:103EE0004D5554580A47002008470020A0220020C2
:103EF000024B0022C3E90022704700BF902000203F
:103F000008B5064B186828B9586800F02FFE203015
:103F1000C0B208BD00F02AFEFAE700BF90200020E2
:103F20001F28094A07D84FF0004323FA00F013680E
:103F30000343136070470123C0F13F0003FA00F010
:103F40005368184350607047902000201F280A4B88
:103F500008D84FF0004222FA00F01A6822EA000264
:103F60001A6070470122C0F13F0002FA00F05A685F
:103F700022EA00025A607047902000202DE9F047A5
:103F8000054692461C460BB904F05BF9FEF7F4F8BF
:103F9000DFF86480164F064638B12023237058237B
:103FA000C4E90237C4F80480FEE73DB90A23237050
:103FB0005B23C4E90237C4F80480FEE704F014F977
:103FC000102231468146284605F074F8094B2B60D3
:103FD000281DC5F80CA004F02BFA484604F00AF995
:103FE00073232670C4E90237C4F80480BDE8F08763
:103FF000309D000053454D41B99C00002DE9F74329
:104000000A9C0546884616460CB904F01AF90FFAC0
:1040100086F9B9F1000F0ADABDB90A2323705E4BA5
:1040200063604FF49373A3605C4BE360FEE7FEF7BD
:10403000A3F80028F0D020232370574B63604FF47F
:104040009173A360554BE360FEE7C6F30E064EB1D5
:1040500008232370504B636040F22913A3604F4B39
:10406000E360FEE72A684E4B9A4209D00C23237086
:10407000494B636040F22D13A360484BE360FEE7B9
:10408000B9F1000F0CDB04F0B8F848B11F2323701E
:10409000414B63604FF49873A360404BE360FEE7CD
:1040A000404B1B78012B12D104F09EF8EE680746B6
:1040B000DEB1013EEE6004F09DF800232370364B24
:1040C000636040F24313A360344BE36009E00223D2
:1040D0002370314B636040F23513A3602F4BE360D4
:1040E0000026304603B0BDE8F083B9F1000F08DACE
:1040F00004F080F81D232370274B636040F25113B6
:10410000E1E7294B1B7843B104F074F82D232370A9
:10411000214B636040F25D13D5E7424606212846F5
:10412000FFF7A0FB384604F065F8FFF765F904F0E7
:104130005BF81E4B1B6893F82530032B25D8DFE86E
:1041400003F0020F1D1600232370134B63604FF41E
:10415000BA73A360114BE360EE6804F04BF8C0E75C
:10416000212323700C4B63604FF4BF73F1E72223CC
:104170002370094B63604FF4C473EAE73123237063
:10418000054B63604FF4C973E3E7019004F032F824
:1041900004F057F80198DFE7B99C00001D9D00006E
:1041A00053454D410A4700200B470020A022002024
:1041B0002DE9F3470646894614460AB904F041F84A
:1041C0004EB90A2323703C4B636040F22623A36060
:1041D0003A4BE360FEE747F6FF5519EA050509D0BB
:1041E00008232370344B636040F22923A360334BD0
:1041F000E360FEE73268324B9A4209D00C23237009
:104200002D4B636040F22F23A3602C4BE360FEE74D
:104210002C4B1B78012B09D002232370264B6360A3
:1042200040F23323A360254BE36034E003F0DCFF6E
:1042300077688046EFB109F4007A002339461A46C0
:10424000BF690095304604F084F9BAF1000F01D03F
:10425000002FF2D1404603F0CDFF19F4004F01D1F9
:10426000FFF7CAF8144B63600025257040F2652300
:10427000D8E7F568DFF84090DFF840806B1C0ED17E
:1042800003F0B8FF1E2323704FF41173C4E9023802
:10429000C4F804903D46284602B0BDE8F0870135D9
:1042A000F56003F0A7FF40F24F23C4E902382770FE
:1042B000C4F80490EFE700BFB99C0000139D000014
:1042C00053454D410A470020034B03600023C36060
:1042D000043004F0ADB800BF4E4F4E452DE9F84311
:1042E00007460E4614460AB903F0ABFFFDF744FF3C
:1042F000054640B1202323703A4B6360A923A36095
:10430000394BE360FEE747B90A232370354B6360FE
:10431000AC23A360344BE360FEE73A68334B9A4228
:1043200008D00C2323702F4B6360AF23A3602E4B68
:10433000E360FEE72E4B1B78012B0BD0022323708A
:10434000284B6360B323A360274BE36006463046E7
:10435000BDE8F88303F048FF804666B1012E29D0FE
:1043600003F048FF082323701E4B6360E523A3601E
:104370001D4BE360FEE77B68DFF868901A4D63B978
:104380003846FFF7A1FF404603F034FF2670C4F81B
:104390000490C423C4E90235D9E703F02BFF2E2390
:1043A0002370C4F80490C723F4E702220021484692
:1043B00004F08CF8D7F80490AEB20135B9F1000FD3
:1043C000F3D13846FFF780FF404603F013FFFFF7B5
:1043D00013F8044B6360E023A360034B84F8009060
:1043E000E360B4E7B99C0000279D000053454D41B0
:1043F0000A4700202DE9F04105460E4614460AB949
:1044000003F01FFF022EDFF84C80104F08D908235D
:10441000237040F2FD33C4E90237C4F80480FEE79C
:1044200003F0E2FE0DB90A4B1D6805EB8605ED6E43
:1044300003F0E0FE0023237040F20543C4E9023795
:10444000C4F804802846BDE8F08100BFA39D0000A9
:10445000A02200203C9D0000F8B5044608B903F0F6
:10446000F0FE03F0C1FE0F4B0F4F1D780F4E022DD3
:104470000BD903F0BFFE1123237040F22243C4E99D
:104480000236676003252846F8BD6A1C1A7003F0DF
:10449000B1FE0023237040F22943C4E9023667606D
:1044A000F1E700BF0C4700203C9D0000D49D0000B8
:1044B0002DE9F84305460E4617461C460BB903F096
:1044C000C0FE022EDFF84490DFF8448008D90823AC
:1044D000237040F24B43C4E90238C4F80490FEE76D
:1044E00003F082FE0DB9084B1D6805EB8605EF66EB
:1044F00003F080FE0023237040F25343C4E90238E6
:10450000C4F80490BDE8F883A02200203C9D000080
:10451000C79D0000054A002313800370044B4360CD
:1045200040F61F038360034BC3607047E022002006
:104530003C9D0000979D00002DE9F04F2DED028B72
:1045400087B008EE103A9DF848300293DDE91383F6
:104550001A9C0393189BDDF85490BDF864A0049353
:10456000054693460CB903F06CFEFDF705FE5A4F65
:104570005A4E30B120232370F023C4E9023667601D
:10458000FEE735B90A232370F323C4E902366760D6
:10459000FEE7BBF1000F06D10A232370F623C4E91E
:1045A00002366760FEE7B8F1000F06D10A232370D8
:1045B000F923C4E902366760FEE7494B1B684B45A7
:1045C00006D908232370FC23C4E902366760FEE79E
:1045D000039B994506D808232370FF23C4E90236BC
:1045E0006760FEE7029B3F2B07D9082323704FF437
:1045F0008173C4E902366760FEE70590284604F03F
:104600009DF80599217040F20B131AF0030FC4E9CD
:10461000023667604DD1039B23F0070308EB830349
:104620005846CDE9009A18EE101A4246039300F05E
:1046300079FB8045039B83460AD9322222704FF4CE
:104640009472C4E902266760039303F0FAFD039BAA
:10465000AB60049B029A6B600023C5E91B3385F8AD
:10466000272085F828206B672846C5F800B0C5F8D4
:104670001480C5F83090A5F834A004F06DF803F06C
:10468000B3FD044695F82700FFF74AFC2846FFF7DC
:1046900067F8144A138801331380134B1B78012BDE
:1046A00020460FD007B0BDEC028BBDE8F04F03F001
:1046B000A1BD1AF0020FAED04FEA8902404604F0C5
:1046C000F9FCA8E703F096FD07B0BDEC028BBDE84E
:1046D000F04FFEF791BE00BF3C9D0000BA9D000068
:1046E000C89A0000E02200200A47002070B5044666
:1046F0000D4694F82630072B08D8013B062B0BD823
:10470000DFE803F01F22221F1F222200FF2B1AD0F6
:10471000BDE8704003F095BD2046FFF751F82846EC
:1047200084F82750FFF7FCFB264B1B68A34220466A
:1047300003D1BDE87040FEF7FBBFBDE87040FFF756
:104740000FB884F8275070BD94F8243094F827608F
:1047500084F82750013B072BDAD801A252F823F046
:104760008147000047470000114700008B470000C9
:104770008147000081470000474700008147000053
:104780002046BDE8704003F092BE204603F08FFE45
:10479000236A1C69B54294F8273002D2AB42A8D8EC
:1047A000D1E7B342A5D1204603F099FF94F8283011
:1047B000984228BF184694F82730C5B2AB4298D12A
:1047C000C1E700BFA02200202DE9F04104460D46BC
:1047D00009B903F036FDFDF7CFFC48B120232B705B
:1047E000544B6B604FF4DA73AB60534BEB60FEE7F6
:1047F000524B1B78012B0AD002232B704D4B6B6060
:104800004FF4DC73AB604C4BEB60BDE8F0812CB92E
:1048100003F0EAFC4A4B1C6803F0ECFC03F0E4FCF8
:1048200094F82630072B804608D8013B062B0DD87C
:10483000DFE803F04531310F45313100FF2B70D0F7
:1048400003F0D8FCBDE8F04103F0FBBC2046FEF7C6
:10485000B7FFE36A13B1204603F04EFF204603F092
:104860007CFF384A13882046013B138003F066FF23
:10487000FF2384F82630404603F0BCFC00232B7055
:104880002C4B6B6040F23123AB602B4BEB60BDE8EF
:10489000F041FEF7B1BD94F82430082B3ED8DFE894
:1048A00003F00805083D170505080500204603F03C
:1048B000E6FD94F8263003F0FB03032BC9D104F185
:1048C000440001F05BFE0028C3D003F0BAFCC0E74F
:1048D000236A1E69204696F8277003F0D0FD96F8EB
:1048E000273096F828209A420CD094F827209A4234
:1048F00008D1304603F0F3FE96F82810814228BF15
:104900000146CFB2002384F8243096F82730BB420A
:10491000CFD039463046FFF7E9FECAE703F091FCF5
:10492000C7E703F067FC1F232B70024B6B6040F25C
:10493000072367E73C9D0000B09D00000A47002068
:10494000A0220020E02200201FB5054B186803F0CC
:1049500005FF69460020FFF737FF05B05DF804FB4F
:10496000A022002000230370044B43604123836096
:10497000034BC360034B1868704700BFE39D000002
:10498000489E0000802000202DE9FF47054688460C
:1049900014460AB903F055FCFDF7EEFB684F694E6B
:1049A00030B1202323707123C4E902366760FEE72B
:1049B00003F023FC30B11F2323707423C4E90236B3
:1049C0006760FEE7604B1B78012B08D00223237041
:1049D00067607823C4E9023604B0BDE8F0875B4B1A
:1049E00093F800A0BAF1000F04D02D232370676064
:1049F0007D23EFE7DFF87091D9F8003023B9132356
:104A0000237067608223E5E7B8F1000F2BD0B8F17F
:104A1000020F28D0B8F1080F00F087800823237018
:104A20008723C4E902366760FEE704F0FEFA484BCC
:104A3000D9F8002019685346A0FB010101F05EFF80
:104A4000444B1B6893F83C20CAB11A6C15441D6492
:104A50002D1A25EAE575404A116821B11A6C914278
:104A60009CBF521A1A64002D47D03B4B1B6863B1A0
:104A7000AB420AD81E2323706760AF23AAE72844FD
:104A80000122186483F83C20E5E7314BD9F800C0D7
:104A90001A68DFF8C0904FF00008501E41464346A8
:104AA000E5FB0C0101F02AFF039003F09DFBCDE92B
:104AB0000088D9F80030294A0399054603F14400DB
:104AC00004F08FFA4FF0010838B1284603F092FB4A
:104AD00084F800806760BF237CE7D9F8000080F885
:104AE0002680FEF76DFE284603F084FBFEF784FC6B
:104AF000002323706760D8236CE703F075FB184B25
:104B0000184A197802EBC10352F831105A689142E1
:104B1000054606D103F06EFB002323706760CE23A9
:104B200058E7184603F0B9FDDDE7002D7FF47DAFAF
:104B30008C23C4E9023684F800806760FEE700BF7A
:104B4000E39D00003E9E00000A4700200B47002026
:104B500080200020A022002088200020DD85000089
:104B600008470020A02000208C200020B0FA80F010
:104B7000704790FAA0F0B0FA80F0704790FAA0F079
:104B8000704700BF72B64EF62250CEF2000040F2DF
:104B9000FF01C0F200010170002080F3098842F299
:104BA000A820C2F20000016881F3088803F0D7FD55
:104BB00044F20870C2F2000044F20971C2F200012E
:104BC0000A78027042F2A020C2F2000042F2A42150
:104BD000C2F200010A680260106880F30988EFF3EE
:104BE000148040F0020020F0040080F31488BFF32A
:104BF0006F8FBDE8F04F0FBCBDE8005006BC62B639
:104C0000084737484FF080510160704734484FF0F3
:104C1000805101607047602080F3118842F2A02229
:104C2000C2F200021168002901BF2E4A136823F066
:104C3000010313600ED0EFF309801EF0100F08BFC0
:104C400020ED108A20E9F04F42F2A025C2F20005C3
:104C500029680860744603F082FD42F2A021C2F286
:104C6000000142F2A420C2F2000003680B6044F28B
:104C70000872C2F2000244F20971C2F2000108781F
:104C8000107044F0040E002B0AD01868B0E8F04F02
:104C90001EF0100F08BFB0EC108A80F309881BE0EB
:104CA00042F2A821C2F200010868A0F11C0080F3C2
:104CB000088840F20001C0F20011C16148F255714C
:104CC000C0F20001816144F64911C0F20001416166
:104CD0004FF6F97ECFF6FF7E002080F311887047F3
:104CE00004ED00E034EF00E00B4B1A680B4B02F1CF
:104CF00080421B68013A03EB8203094A23F0070351
:104D000013604FF0E023D3F8343F03F04043B3F196
:104D1000404F00D0FEE770476C2000206820002044
:104D2000A822002010B5029C02EB840222F00702A8
:104D30004FF0807442E90204164842F80C0C4FF020
:104D400012344FF0033042E905044FF0023042E9DB
:104D500007306FF0020C4FF0113342E90A3C42F881
:104D6000201C4FF009334FF0103142E90C314FF065
:104D700008304FF0073342E90E304FF006344FF061
:104D80000533104642E910344FF0043340F8443DF7
:104D900010BD00BF4949000010B54FF42F72044602
:104DA000002104F087F98023C4F88C30054BC4F847
:104DB0008430012384F8883004F19C00BDE8104061
:104DC00003F041B95C9E000010B5D0F8A0400A463F
:104DD00074B903F065FE044640B12D2896BF074B19
:104DE000074953F82010074803F0AAFF204610BDDA
:104DF000D0F8A4101046A0470024F7E7589F000001
:104E00005F9E00006D9E000038B590F8803004462B
:104E10000BB1002038BD03F0A6FC0028F9D1012316
:104E200084F8803094F8883033B184F88800D4F85E
:104E30008410124803F084FF03F067FF431C05460B
:104E40001AD0204603F08CFCE9B2204600F00EFC9C
:104E50000028F1D0204603F088FC94F8880038B18F
:104E6000D4F88410054803F06BFF002084F8880014
:104E7000002384F88030CDE70120F9E796A00000F8
:104E800038B50446D0F8B00200F052FDD4F8B402B0
:104E900003F0DFF920B10B4840F2151103F0D2F80E
:104EA000084D2046FFF7B0FF0028FAD0D4F8B8022A
:104EB00003F0CFF90028F4D04FF49071284603F0A6
:104EC000C1F8EEE7719E000030B50C468BB0054688
:104ED000FFF762FF6368A168C5F8B032284603F0A7
:104EE000D2FD03F0AFF9216A4FF47A720023A0FBE0
:104EF000010101F003FDC5F8B40203F0A3F9616AF2
:104F00004FF47A720023A0FB010101F0F7FC236843
:104F10000193E369079363690593A3690693236982
:104F20000393C823C5F8B80204930A48002301AAD2
:104F3000294602930893FEF7A9F9E06020B90648D4
:104F40004FF49C7103F07EF8284603F00AFC0BB086
:104F500030BD00BF814E0000719E0000F8B50B7897
:104F6000302B05460E46174604D14B7803F0DF037D
:104F7000582B12D02A49721E12F8014F002C39D139
:104F80000A222146304602F0E9F9202D03460A465E
:104F900035D1631A5842584118E04A1C204912F88A
:104FA000013FA3B9304604F097F81E4B2B40032B6A
:104FB000A0F1020015D16B1C48BF2B1D9B10834232
:104FC0000BD1B07837288CBF00200120F8BD5B5C86
:104FD00013F04403E3D11846F8E7CCBF01200020CA
:104FE000F4E7002DB8BF0335B0EBA50FD4BF012007
:104FF0000020EBE7635C13F00403BDD1EBE727B1BE
:10500000084302D0013B61F10002012000FA05F5DE
:10501000013D1D40002A08BF9D4218BF0020D5E772
:10502000DAA200000300008070B503787B2B16D154
:105030000C4E05460221002215F8014F7D2C05D1AA
:10504000435C63B9D04300F0010070BDA35D13F071
:10505000440302D001320131EEE7202CFBD00020C6
:10506000F3E700BFDAA2000070B506460D4604F073
:1050700033F80446304603F063FE044EAC4200D3DE
:1050800070BD304603F05CFE0134F7E744A4000035
:105090002DE9F84F044602215048FFF7E5FF1E2195
:1050A0002068FFF7E1FF6368586803F049FE4C4849
:1050B00003F046FE67683B7BFD2B12D8D7F80880CB
:1050C000DFF81891DFF878A1DFF850B1404604F01E
:1050D00003F80C3705464FF0FF3617F8013BFF2B5E
:1050E00001D1BDE8F88F212B17D8212B33D8DFE869
:1050F00003F06D736F11181A1C1E323232323232C5
:10510000323220222426282A2C2E323232323232D7
:1051100032326930334C1DB31FE0FE2B5AD0324C73
:10512000F9E7324CF7E7324CF5E7324CF3E7324C13
:10513000F1E7324CEFE7324CEDE7324CEBE7324C23
:10514000E9E7324CE7E7324CE5E7324CE3E7324C33
:10515000E1E7324CDFE7244C05B10136202BBCD00F
:1051600002214846FFF780FF1E214846FFF77CFFDB
:10517000504603F0E5FD5946204603F0A3FF2849B9
:10518000002818BF2146274803F0DAFD3B78202B82
:1051900002D12B2003F0C8FD234803F0D1FD4DB10F
:1051A00018F806301F2B05D018F806001F2801D06C
:1051B000AE4203DB0A4803F0C3FD8EE703F0B4FD03
:1051C0000136F1E7002D88D0184CC6E7184CA2E74D
:1051D000184CA0E7184C9EE7184C9CE79DA00000D7
:1051E000AD93000026A0000010A000007BA00000EE
:1051F0002CA000006DA0000069A0000060A00000CD
:1052000056A000004CA0000061A0000057A00000C4
:105210004DA0000042A000003BA0000032A0000012
:1052200023A0000096A0000083A0000018A00000AA
:1052300025A000002BA0000074A000007AA00000B0
:1052400081A000002DE9F04F95B0054688469146B3
:10525000049303F041FF1E9F049B079000261E60ED
:105260000CAA3E600BA9284603F08BFD04460028DB
:1052700040F0C2800C9803F02FFF049B019418604B
:10528000D5F89C3003932646039B1BB9204615B0E6
:10529000BDE8F08F039B9B680293002B77D02E44D0
:1052A00016F8013B202B13D000260C23029A7343DF
:1052B00002EB030BD158002964D00B9B019A069393
:1052C00093425FDB9BF8083033B106F1010A3FE0FF
:1052D0003B6801333B60E3E73B68D5F894200591D8
:1052E000D21A049B1A60019B14A800EB830353F8A5
:1052F000203C0993184603F0F7FE82460028E4D1CB
:1053000005990891084603F0E7FEDBF804300593A1
:1053100093F80CC0D7F800B0BCF1FE0FDDE908131C
:1053200002461AD1069800F1FF3E0198864514D036
:10533000059A18461268029203F0CEFE0BF1010B9B
:10534000584438603B68EA5C22B1019B0133019309
:105350005646AAE701333B60F4E7D5F8943009914B
:10536000A3EB0B039342089221DC404603F0B4FE0A
:10537000089A099910447B280DD9204A494640468D
:1053800002F084FE079BEA182B4693422DD1039B23
:105390001B68039378E70A464046494602F076FECA
:1053A000174A49464046013402F070FE8DE7BCF1D1
:1053B000FE0F8AD1069B019A013B934285D1059B42
:1053C000D3F800A05AF80C2B22B9079B3B60049B32
:1053D0001A60D7E74946404602F058FE084A494657
:1053E000404602F053FE0134ECE7197811B94FF052
:1053F000200119700133C8E7344647E786A0000052
:1054000044A400002DE9F04786B0DDE90EA8002491
:105410001C60064689468AF800401168154888F8DD
:10542000004017461D468DF81740FBF707FA18B9DC
:105430002B6801332B600124D6F89C60002036B91C
:1054400014B1012388F8003006B0BDE8F087B068D9
:1054500068B14B46CDE902A8CDE900750DF1170200
:10546000002103F0BAFA9DF81730002BE8D1366816
:10547000E5E700BF8BA000002DE9F0470026ADF561
:10548000447D04467C22314605A80DF108080496A7
:1054900003F010FECDF8008003AB802204A9204663
:1054A000FFF7D0FE01283ED104A803F015FE0399B2
:1054B000D8F80030471A0B44234427EAE77705461B
:1054C00004A801443A46184603F0CCFDC655D4F86A
:1054D0009060039BD8F80010D4F890201944B14292
:1054E00012DCD4F89410E81A0244C4F89020014465
:1054F00004AAC4F89410D41825182B1B002B0DDC1B
:105500000DF5447DBDE8F087A05C03F00DFCD4F8F8
:1055100090300133C4F890300136DAE714F8010B0B
:1055200003F002FCE9E7EBDD24AD8022314628469A
:1055300003F0C0FD44AB4FF400721846314603F04F
:10554000B9FD0DF1100A034652464FF0010912F859
:10555000017B002F48D143F8296004A803F0BCFD6B
:1055600029463B461AF8016B44AF57F8042B824298
:1055700043D10133994501F8016BF3DAD4F8906017
:10558000039BB34242DC374A3748234604A903F061
:10559000D7FB284603F0A0FD039ED8F800703544E1
:1055A0003744861B26EAE672E3191744E01904F132
:1055B000900188424FD904F198018B424BD26A1E68
:1055C000184699190B1A002B39DD12F8013F00F823
:1055D000013BD4F890300133C4F89030D4F89430C3
:1055E0000133C4F89430EDE7202F06F1010604BF23
:1055F00043F8296009F10109A9E70DF1100C624493
:10560000D25CB242B1D00022EA54B7E7D4F890306D
:10561000E05C03F089FBD4F890300133C4F890309B
:105620000136ADE7D4F890200132C4F89020D4F8C8
:1056300094200132C4F89420013B002BF2DC0023BB
:10564000E3552E44731B002B7FF75AAF15F8010B5F
:1056500003F06AFBF6E71846294603F003FD3346DC
:10566000EBE700BF5C9E000090A000002DE9F8432E
:10567000D0E9245604460F46002294F89830012BB6
:1056800006D10A2F06D1002084F89800BDE8F883DF
:1056900000F2A0801B2F03D1022384F898303BE056
:1056A000A7F10D0253425341082F84F8983035D1A9
:1056B000002D30DDB5420FD1384603F035FB2020F8
:1056C00003F032FB013D384603F02EFB0023635507
:1056D000013EC4E924561FE0FBDA05F1FF383846E5
:1056E00003F022FB04EB0803A6EB0802611918463D
:1056F00003F0C6FC0022A25501464E4803F020FBF1
:10570000013E3546454501DC4546E2E7082003F009
:105710000BFB013DF6E7DCD10020B7E77F2F1CD162
:10572000002EF9DDB542F7DA6319691C721B2144BA
:10573000184603F0A5FC00220146A2553E4803F09E
:10574000FFFA0820013E03F0EFFAB542F9D1D4F890
:105750009430013BC4F89430DEE70D2F01D00A2FBE
:105760000AD10D2003F0E0FA0A2003F0DDFA00234D
:10577000C4E92433012089E7092F03D12046FFF72C
:105780007BFEC9E7D4F88C30013BB342C4DDB5429F
:1057900004EB050805F101090CDB88F80070D4F86A
:1057A0009430C4F890900133C4F89430384603F034
:1057B000BBFAB1E7721B414604EB090003F060FC41
:1057C000404603F0BDFA0820013E03F0ADFAB542B1
:1057D000F9DDE2E7022B06D15B2F01D103235CE761
:1057E00084F8982049E7032B96D1413F84F898200C
:1057F000032F91D8DFE807F002070A1501212046A0
:1058000003F03AFA88E74FF0FF31F8E7B54283DA60
:10581000605D03F089FAD4F890300133C4F8903019
:105820007AE7002D7FF778AF013DC4F8905008204B
:10583000BDE700BF99A000009EA000007FB5094B06
:105840006A4603F11006154618685968144603C4E1
:105850000833B3422246F7D12846FCF75BFF00200D
:1058600004B070BDA2A000001FB5144A10685168B2
:1058700001AB03C390681860114BD3F8B420120336
:1058800013D4D3F8B830C3F308030E48ADF806308C
:10589000FAF75AFF01A8FCF7F5FB4FF4FA70FCF792
:1058A000FDFA002005B05DF804FB074B1B884FF69E
:1058B000FF72934208BF8423E7E700BFB2A0000055
:1058C0000081E00F80F0FA020001E00F07B5084BFD
:1058D00018680190462301A88DF80430FCF720FCDD
:1058E0006420FCF7D5FA002003B05DF804FB00BF8C
:1058F000BEA0000010B50C480C4C6FF00402A021B3
:1059000012F0800FD3B21BBF03F00F03043BA318A8
:105910001B1802F101020CBF83F800131976462A06
:10592000EED1002010BD00BF00ED00E000E100E07E
:1059300073B5044602F051FC0546FDF751FD88B1F0
:10594000134E33788DF80730FF2B0BD10DF1070084
:1059500002F0AFFB18B10F48642102F073FB9DF811
:10596000073033700C4B28461C6002F03AFCFDF700
:1059700037FD50B19DF807102246002002F0B9FB18
:1059800018B104486F2102F05DFB002002B070BD29
:1059900026110020C2A00000B422002073B502F03E
:1059A0001CFC104D104B2E781C6802F01AFCFDF701
:1059B00017FD60B1FF2E0AD0297801AA002002F05D
:1059C00088FB18B109488F2102F03CFB019C2CB9DF
:1059D00002F003FC064B1C6802F003FC204602B0F8
:1059E00070BD00BF26110020B4220020C2A000001C
:1059F000B822002010B5044602F0EFFB024B1C60F9
:105A000002F0EFFB002010BDB822002010B50020EE
:105A1000144603F03AFA18B10248BF2102F012FB13
:105A2000204610BD1DA10000034B186800238068AC
:105A30000222194601F0AABAB810002038B5037A3C
:105A40003022534303F1804303F500530446D3F857
:105A50009450D0E9032313449D4201D8AA4204D9AB
:105A600005484FF43E7102F0EDFAD4E90303034414
:105A70009D4218BF284638BD87A1000030B51446A6
:105A800087B005461046FFF7D9FF636983423CBFE4
:105A9000D4E903315B181B1A0246ABB112490391DA
:105AA0000021CDE90131012300930494D4E90013CE
:105AB000284602F061FB20B10C484FF4347102F02B
:105AC000C1FA002007B030BD0122627694F82D2083
:105AD000002AF6D084F835301321E3692046984730
